:1000000012C019C018C017C016C015C014C013C044
:1000100012C011C010C00FC00EC00DC00CC00BC06C
:100020000AC009C008C011241FBECFE5D4E0DEBF5E
:10003000CDBF02D084C0E4CF8FEF81BB17BA12BA14
:1000400081E088BB80E0B09973C0853010F48F5F89
:10005000FACF99EF92BB2FEF34E39CE02150304070
:100060009040E1F700C0000094EA92BB2FEF34E328
:100070009CE0215030409040E1F700C0000090EB40
:1000800092BB2FEF34E39CE0215030409040E1F7E9
:1000900000C0000099E992BB2FEF34E39CE02150AF
:1000A00030409040E1F700C0000092E992BB2FEF92
:1000B00034E39CE0215030409040E1F700C0000064
:1000C00092E892BB2FEF34E39CE021503040904007
:1000D000E1F700C0000098EF92BB2FEF34E39CE003
:1000E000215030409040E1F700C0000090E892BB02
:1000F0002FEF34E39CE0215030409040E1F700C006
:10010000000090E992BB2FEF34E39CE02150304097
:100110009040E1F700C0000090EC92BB2FEF34E379
:100120009CE0215030409040E1F700C000008BCFB0
:10013000882311F0815087CF9FEF92BB84CFF89432
:02014000FFCFEF
:00000001FF
