S00F0000546573743030362E73726563DF
S11300001CC023C022C021C020C01FC01EC01DC0F0
S11300101CC01BC01AC019C018C017C016C015C018
S113002014C013C012C035C019C01BC01DC01FC0EE
S113003021C023C025C027C029C011241FBECFE57D
S1130040D4E0DEBFCDBF28D051C0DACF90E08A30F3
S1130050910508F5FC01ED5EFF4F099489EF82BB21
S1130060089584EA82BB089580EB82BB089589E9F0
S113007082BB089582E982BB089582E882BB089519
S113008088EF82BB089580E882BB089580E982BB33
S1130090089580EC82BB08958FEF81BB17BA12BA22
S11300A081E088BBC0E0D0E01EC0B09904C0C53078
S11300B030F4CF5F0AC0CC2329F0C15006C081E0E0
S11300C0D0E003C081E001C080E0882371F38D2F6C
S11300D0BDDF2FEF84E39CE0215080409040E1F7A6
S11300E000C00000DF5FDA3078F3DDCFF894FFCF93
S9030000FC
