:100000001CC02BC02AC029C028C027C05BC025C087
:1000100024C023C022C021C020C01FC01EC01DC0DC
:100020001CC01BC01AC04BC02FC031C033C035C06C
:1000300037C039C03BC03DC03FC011241FBECFE513
:10004000D4E0DEBFCDBF20E0A0E6B0E001C01D924D
:10005000A136B207E1F767D071C0D2CF8EB5886004
:100060008EBD89B7806189BF8AE78BBD82E18ABD79
:100070008EB584608EBD089590E08A30910508F5B4
:10008000FC01ED5EFF4F099489EF82BB089584EA7D
:1000900082BB089580EB82BB089589E982BB0895F5
:1000A00082E982BB089582E882BB089588EF82BB13
:1000B000089580E882BB089580E982BB089580ECB2
:1000C00082BB08951F920F920FB60F9211242F93A7
:1000D0003F934F935F936F937F938F939F93AF93D0
:1000E000BF93EF93FF93809160008A3010F01092DD
:1000F00060008091600090E0BFDF809160008F5FC2
:1001000080936000FF91EF91BF91AF919F918F918C
:100110007F916F915F914F913F912F910F900FBE03
:100120000F901F9018958FEF81BB17BA82BB81E0AB
:1001300088BB10926000789491DFFECFF894FFCFD7
:00000001FF
