:100000001CC02BC02AC029C028C027C05BC025C087
:1000100024C023C022C021C020C01FC01EC01DC0DC
:100020001CC01BC01AC03DC021C023C025C027C0B2
:1000300029C02BC02DC02FC031C011241FBECFE559
:10004000D4E0DEBFCDBF20E0A0E6B0E001C01D924D
:10005000A736B207E1F7A5D0FAC0D2CF90E08A3038
:10006000910508F5FC01ED5EFF4F099489EF82BB15
:10007000089584EA82BB089580EB82BB089589E9E4
:1000800082BB089582E982BB089582E882BB08950D
:1000900088EF82BB089580E882BB089580E982BB27
:1000A000089580EC82BB08958EB588608EBD89B7B7
:1000B000806189BF8AE78BBD82E18ABD8EB582608F
:1000C0008EBD08951F920F920FB60F9211242F9399
:1000D0003F934F935F936F937F938F939F93AF93D0
:1000E000BF93EF93FF9380916000811109C088B3A3
:1000F0008E7F88BB88B3826088BB80916300AEDF4F
:1001000080916000813049F488B38D7F88BB88B3CB
:10011000816088BB80916100A1DF809160008F5F6A
:1001200080936000823010F010926000FF91EF9198
:10013000BF91AF919F918F917F916F915F914F91FF
:100140003F912F910F900FBE0F901F901895AC010B
:100150009C01ADECBCEC6FD09695879596958795F4
:10016000969587959C01220F331F880F991F880F42
:10017000991F880F991F820F931F9A01281B390B13
:1001800030936400209363009A0155D0969587952B
:1001900096958795969587959093620080936100D8
:1001A000089582DF8FEF81BB9FE097BB82BB80E227
:1001B00088BB1092660010926500789481E690E00A
:1001C000C6DFC0E010926600109265002CC0B599A1
:1001D0000AC0C53010F4CF5F0DC0109266001092B7
:1001E000650081E007C0CC2311F0C15003C081E05D
:1001F00001C080E0882359F38091650090916600EA
:10020000A6DF2FEF84E39CE0215080409040E1F78F
:1002100000C0000080916500909166000196909367
:100220006600809365008091650090916600843639
:100230009105F8F2C7CFA29FB001B39FC001A39F61
:1002400001D0B29F700D811D1124911D0895F89465
:02025000FFCFDE
:00000001FF
