S00F0000546573743030392E73726563DC
S113000012C024C023C022C021C020C01FC01EC0F3
S11300101DC01CC01BC01AC019C018C017C016C010
S113002015C014C013C011241FBECFE5D4E0DEBF39
S1130030CDBF10E0A0E6B0E0E8E8F1E002C0059032
S11300400D92A637B107D9F78CD09CC0D9CF12BA7C
S11300508FEF81BB08958295807F92B3986092BBA5
S113006095E89A95F1F7000092B39F7092BB92B312
S1130070892B82BB82B3877F82BB85E88A95F1F79F
S113008000000895CF93C82F611104C082B38B7F01
S113009082BB03C082B3846082BB8C2F82958F7035
S11300A0DADF8C2FD8DFCF91089561E0EBDF08957C
S11300B090E4699F800D112460E08068E3DF089577
S11300C088E28A95F1F783E0C6DF8FE39FE1019729
S11300D0F1F700C0000083E0BEDF87EC90E00197F9
S11300E0F1F700C0000083E0B6DF8FEC97E00197E2
S11300F0F1F700C0000082E0AEDF8FEC97E00197DB
S1130100F1F700C0000060E088E2BCDF8FEC97E00C
S11301100197F1F700C0000060E08CE0B3DF8FECE2
S113012097E00197F1F700C0000060E086E0AADFE5
S11301308FEC97E00197F1F700C0000008950F934A
S11301401F93CF938C01C0E002C0AFDFCF5FF801F3
S1130150EC0FF11D80818111F8CFCF911F910F9188
S1130160089575DFADDF60E070E080E0A1DF80E638
S113017090E0E5DF61E070E082E09ADF8DE690E0F8
S10B0180DEDFFFCFF894FFCF8E
S113018848656C6C6F20576F726C642100537472ED
S1090198696E67203200CD
S9030000FC
